:0C0000000C9446000C9400000C940000CE
:10000C000C9400000C9400000C9400000C94000064
:10001C000C9400000C9400000C9400000C94000054
:10002C000C94DB000C9400000C9400000C94000069
:10003C000C9400000C9475000C9400000C940000BF
:10004C000C9400000C9400000C9400000C94000024
:10005C000C9400000C9400000C9400005000001054
:10006C00021700090003020601020100001700003C
:10007C000002010002036800140009036A0000007A
:10008C00F894EE27EFBBF1E0F5BFE5BF8DE0A2E001
:10009C00BB27ED938A95E9F780E098E0A0E0B1E00A
:1000AC00ED930197E9F7EEE7F0E0859195910097D4
:1000BC0061F0A591B59105901590BF01F0010590E7
:1000CC000D920197E1F7FB01F0CFE0E0EEBBEFEF13
:1000DC00EDBFE8E0EEBFC0E0D3E00C94DC000A9288
:1000EC001A92FA926A937A938A939A93AA93BA93EE
:1000FC00EA93FA93EFB7EA93E8EEE6BD4394E5E0B2
:10010C00E41511F00C948C00E1E04E2EE1E0F0E0EF
:10011C005E0E6F1EEAE8F2E0E515F60510F00C94A1
:10012C009A00552466247A9428982B982C984398F6
:10013C004298E42DF0E0E130A0E0FA0711F00C94C5
:10014C00AD00439A429AA1E00E948D0120C0E2309A
:10015C00A0E0FA0711F00C94B8002C9AA2E00E94CF
:10016C008D0115C0E330A0E0FA0711F00C94C30028
:10017C002B9AA3E00E948D010AC0E430A0E0FA079C
:10018C0011F00C94CD00289AA4E00E948D01E99105
:10019C00EFBFF991E991B991A991999189917991CF
:1001AC006991F9901990099018951895E5E0E5BDBD
:1001BC00E0EFE6BDE1E0E0936E00E3E8E093800061
:1001CC00ECE0E0938100E0910203E0938800E2E030
:1001DC00E0936F00EFEFEAB9E4B93D9A3C9A3B9A91
:1001EC003A9A399A389AE0E0E5B9419A409AEFEF99
:1001FC00EBB9E0EAE0938800A4EFB1E00E94C801FB
:10020C00ECE8E0938800E2E08E2E77247894E0E826
:10021C00E0930303A82DECE3EA02F001E093000362
:10022C00F0930103662777270E943802DF01CB0188
:10023C00E0910303FF27662777270E9438020E946C
:10024C0066020E94FF01DE2EEF2EE0E07E1614F017
:10025C000C943301EBE37E2E8A94A82DECE3EA0296
:10026C00F001A0910003B0910103AE1BBF0BE72D71
:10027C00F0E0E7FDFFEFAE1BBF0BDA16EB0610F05C
:10028C000C946201A0918800A13210F40C945301DB
:10029C00A8E8B0E0EC91E150EC93A82DECE3EA0275
:1002AC00F001DF01E72DF0E0E7FDFFEFEA0FFB1FA8
:1002BC00E0930003F09301038A92A1E00E946C0189
:1002CC007A92A0E00E946C01C0CFFFCFAA93A881C4
:1002DC00E2E0EA9FF001EB5FFC4FBF01A981BB2775
:1002EC00EAE0F0E00E94DA02DB01EC93A881E2E0A4
:1002FC00EA9FF001EA5FFC4FBF01A981B0E0EAE0A0
:10030C00F0E00E94D502DB01EC9322960895AA93AB
:10031C00E881F0E0EC5FFC4FE081A9E0B3E0F0E0B5
:10032C00EE0FFF1FAE0FBF1FEC91E17011F4409860
:10033C0001C0409AE881F0E0EC5FFC4FE081A9E05D
:10034C00B3E0F0E0EE0FFF1FAE0FBF1FEC91E270B9
:10035C00F0E0F595E795E03011F4419801C0419A31
:10036C00E881F0E0EC5FFC4FE081A9E0B3E0F0E065
:10037C00EE0FFF1FEA0FFB1FE181EE0FEE0FEBB943
:10038C0021960895109639F080EA9FE00197F1F7D5
:10039C00A8951197C9F70895552342F4503811F4D4
:1003AC00E0FF04C03196691F791F6BF050E85727A6
:1003BC0011F45F9373C05F3F31F0660F000C5795DB
:1003CC006795752F08955F9300200AF073C06CC079
:1003DC0050E8192E1522880F991F9527550F8795D0
:1003EC0050E8072E0522660F771F7527550F679566
:1003FC000895689401C0E8945F93F2DF703818F0A8
:10040C007F3F08F44BC056E1571BAAF45195583066
:10041C000EF4593030F0EFEFFFEF6FEF7FE777F925
:10042C001AC077275523B9F0EE0FFF1F661F771FF1
:10043C005A95D1F710C07727583028F0EF2FF62FA8
:10044C00672F5850F9CF552331F076956795F7956E
:10045C00E7955A95D1F700200AF47BD05F91089567
:10046C00689401C0E894309760407040B1F000246B
:10047C0026F0772312F400946CD0172E7EE1112015
:10048C0032F07A95EE0FFF1F661F111CF9CFEF2F7C
:10049C00F62F612D5F938ADF5F910895EE27FF277A
:1004AC00662777275F910895EFEFFFEF6FE77FEFF8
:1004BC005F910895EFEFFFEF6FE77FE75F9108958E
:1004CC005F9386DF703821F411200AF4EDCFF2CF60
:1004DC00903809F4E3CF01240894970B1BF4D4F360
:1004EC000020F3CF792F1F932F933F934F93112419
:1004FC001127222733274427552790E2AE17BF0731
:10050C008607410730F0AE1BBF0B860B410B0894DE
:10051C0001C08894551F221F331F111CAA1FBB1F1B
:10052C00881F441F9A9551F7F901612D4F913F9106
:10053C002F911F91662332F0550FEE1FFF1F661F80
:10054C007A9543F229DF5F910895F195E195F0409A
:10055C000895F09560957095E195FF4F6F4F7F4F23
:10056C000895FE2FFF0FFF0B6F2F7F2F08956F2F16
:10057C00660F660B762F08950024112490E1AA0FC4
:10058C00BB1F001C111C0E1A1F0A18F40E0E1F1E86
:10059C0001C0A1609A9599F7FD01D001089512D080
:1005AC00EBDF0EF4D2DF0895E894B7FF04C0A095FA
:1005BC00B09511966894F7FDC8DFDEDFFD010EF4EF
:1005CC00C4DF0895E894F7FF02C0BFDF6894B7FF5B
:1005DC0006C0A095B095119600F8039400FA089502
:00000001FF
