:060000000C9450000C946A
:1000060000000C9400000C9400000C9400000C946A
:1000160000000C9400000C9400000C9400000C945A
:1000260000000C9400000C94F0000C9400000C945A
:1000360000000C9400000C9400000C947F000C94BB
:1000460000000C9400000C9400000C9400000C942A
:1000560000000C9400000C9400000C9400000C941A
:1000660000000000010000300237002900230226AC
:10007600012201200037002000220237032F032827
:1000860002330034023600370020033F01000A0025
:10009600680026000B036C000000F894EE27EFBB07
:1000A600F1E0F5BFE5BF8DE0A2E0BB27ED938A95B1
:1000B600E9F780E098E0A0E0B1E0ED930197E9F779
:1000C600E2E9F0E085919591009761F0A591B591EF
:1000D60005901590BF01F00105900D920197E1F78B
:1000E600FB01F0CFE0E0EEBBEFEFEDBFE8E0EEBFE7
:1000F600C0E0D3E00C94F1000A921A92FA926A9345
:100106007A938A939A93AA93BA93EA93FA93EFB758
:10011600EA93E8EEE6BD4394E5E0E41511F00C94AD
:1001260095004424E1E0F0E05E0E6F1EEAE8F2E09E
:10013600E515F60510F00C94A70055246624AA20B0
:1001460011F40C94A7007A9428982B982C9842982E
:100156004398E42DF0E0309711F00C94B700439AE1
:10016600A0E00E94E5032BC0E130A0E0FA0711F001
:100176000C94C200429AA1E00E94E50320C0E2303E
:10018600A0E0FA0711F00C94CD002C9AA2E00E9490
:10019600E50315C0E330A0E0FA0711F00C94D8008F
:1001A6002B9AA3E00E94E5030AC0E430A0E0FA0718
:1001B60011F00C94E200289AA4E00E94E503E9916C
:1001C600EFBFF991E991B991A991999189917991A5
:1001D6006991F9901990099018951895E5E0E5BD93
:1001E600E0EFE6BDE1E0E0936E00E3E8E093800037
:1001F600ECE0E0938100A1E0B0E00E944E05E093C0
:100206008800E2E0E0936F00EFE3E4B9EFE0E7B9DE
:10021600EFE7EAB9E0EFE8B9EFEFEBB9E5E08E2EEC
:100226007724E2E1EA93A0E00E94B103EBE0EA93CF
:10023600A1E00E94DC03EBE0EA93A2E00E94DC036B
:10024600EBE0EA93A3E00E94DC03EBE0EA93A4E090
:100256000E94DC037894A1E0B0E00E944E05E132F2
:1002660010F40C944801A1E0B0E00E944E05E09322
:100276008800A4E6B0E00E942004A1E0B0E00E945D
:100286004E05E1500E945A05E6CFEFE0EA93A0E062
:100296000E94B103A0E0B0E00E944E058E2E359B71
:1002A60044C034991BC0E3E68E1614F00C945C012E
:1002B6008394AAEFB0E00E94200434990FC08A927A
:1002C600A2E00E94B103A4E6B0E00E942004E3E6A7
:1002D6008E1614F00C9470018394EFCF4F991BC0C7
:1002E600E1E0E81514F00C9479018A94AAEFB0E0E5
:1002F6000E9420044F990FC08A92A2E00E94B10387
:10030600A4E6B0E00E942004E1E0E81514F00C94A5
:100316008D018A94EFCF8A92A2E00E94B103E82D64
:10032600A0E0B0E00E945A05BACFE1E1EA93A0E06E
:100336000E94B103A8EEB3E00E942004EEE0EA9327
:10034600A0E00E94B103A1E0B0E00E94200435992C
:1003560001C0FDCFA1E0B0E00E942004359B5FC044
:1003660034992DC0A1E0B0E00E944E05EA3910F0A4
:100376000C94C601A1E0B0E00E944E05EF5F0E941A
:100386005A05E0938800AAEFB0E00E942004349951
:1003960016C0A2E3B0E00E942004A1E0B0E00E94F3
:1003A6004E05EA3910F00C94E101A1E0B0E00E949C
:1003B6004E05EF5F0E945A05E0938800E8CF4F99FB
:1003C6002DC0A1E0B0E00E944E05E13210F40C947D
:1003D600F501A1E0B0E00E944E05E1500E945A05E9
:1003E600E0938800AAEFB0E00E9420044F9916C05F
:1003F600A2E3B0E00E942004A1E0B0E00E944E0516
:10040600E13210F40C941002A1E0B0E00E944E0517
:10041600E1500E945A05E0938800E8CF9FCFDD2483
:10042600EE24E7E0F0E0DE16EF0610F00C94320260
:10043600E1E1EA93A0E00E94B103A6E9B0E00E94E0
:100446002004E2E1EA93A0E00E94B103A2E3B0E057
:100456000E942004E1E0F0E0DE0EEF1EE2CF3599C7
:1004660001C0FDCFA1E0B0E00E942004E1E1EA93E3
:10047600A0E00E94B103A4EFB1E00E9420047A92AA
:10048600A1E00E94B103EAE0EA93A0E00E94B10372
:10049600A1E0B0E00E944E05EC3810F40C946D0219
:1004A600A1E0B0E00E944E05EC3810F40C946D0209
:1004B600A1E0B0E00E944E05E0938800A4E6B0E01B
:1004C6000E942004A1E0B0E00E944E05E1500E9487
:1004D6005A05E6CFA1E0B0E00E944E05E0529E2EFE
:1004E600A82DECE3EA02F001E0930403F093050380
:1004F600662777270E945904DF01CB01E92DFF27E4
:10050600662777270E9459040E948704E093000318
:10051600F093010360930203709303037724E1E0F1
:10052600AE2EE0E07E1614F00C941403EBE37E2E60
:100536008A94E0E08E1614F00C9414037724882431
:100546007A92A1E00E94B103A1E0B0E0E0E20E944D
:100556005A05E0938800359B01C0FDCFE2E1EA939E
:10056600A0E00E94B103EBE0EA93A1E00E94DC0365
:10057600EBE0EA93A2E00E94DC03EBE0EA93A3E05F
:100586000E94DC03EBE0EA93A4E00E94DC03DD2496
:10059600EE24E3E0F0E0DE16EF0610F00C94140310
:1005A600A1E0B0E00E944E05EA3910F00C94ED028D
:1005B600A1E0B0E00E944E05E0938800AEE1B0E015
:1005C6000E942004A1E0B0E00E944E05EF5F0E9469
:1005D6005A05E6CFA8EEB3E00E942004A1E0B0E001
:1005E6000E944E05E13210F40C940B03A1E0B0E03A
:1005F6000E944E05E0938800AEE1B0E00E94200420
:10060600A1E0B0E00E944E05E1500E945A05E6CFF7
:10061600A8EEB3E00E942004E1E0F0E0DE0EEF1E5B
:10062600B8CFA82DECE3EA02F001A0910403B09143
:100636000503AE1BBF0BE72DF0E0E7FDFFEFAE1B9A
:10064600BF0BE0910003F0910103609102037091EA
:100656000303882799270E943E050E94CC0409F0CF
:1006660010F40C947103A1E0B0E00E944E05E13253
:1006760010F40C946203A1E0B0E00E944E05E15034
:100686008E2FA1E0B0E00E944E05F0E0B097BF01CA
:10069600A82DECE3EA02F001DF01E72DF0E0E7FD2B
:1006A600FFEFEA0FFB1FDB010E941B05AE2FE82FB1
:1006B600EA1BA1E0B0E00E945A05E0938800A82D4D
:1006C600ECE3EA02F001DF01E72DF0E0E7FDFFEFE2
:1006D600EA0FFB1FE0930403F09305038A92A2E05E
:1006E6000E94B1037A92A1E00E94B103A72DB0E067
:1006F600A7FDBFEFE2E0F0E00E942005309711F081
:100706000C948B03EAE0EA93A0E00E94B10305C0D3
:10071600E2E1EA93A0E00E94B10335991DC0359944
:1007260001C0FDCFAA24A1E0B0E00E942004EAE0C7
:10073600EA93A0E00E94B103359B01C0FDCFA1E082
:10074600B0E00E942004359901C0FDCFA1E0B0E0E1
:100756000E942004E1E0AE2EE4CEFFCFAA93E8810A
:10076600E03011F40C94D703A881E2E0EA9FF0018F
:100776003197EA5FFC4FBF01A981BB27EAE0F0E0B1
:100786000E942005DB01EC93A881E2E0EA9FF001DC
:10079600EA5FFC4FBF01A981B0E0EAE0F0E00E9409
:1007A6001B05DB01EC9303C0E981E0930603229667
:1007B6000895AA93E881F0E0EA5FFC4FA981A0833F
:1007C60022960895AA93E881F0E0EA5FFC4FE08163
:1007D600ABE0B3E0F0E0EE0FFF1FAE0FBF1FEC91F2
:1007E600E17011F4409801C0409AE881F0E0EA5FB8
:1007F600FC4FE081ABE0B3E0F0E0EE0FFF1FAE0F81
:10080600BF1FEC91E270F0E0F595E795E03011F44A
:10081600419801C0419AE881F0E0EA5FFC4FE0812F
:10082600ABE0B3E0F0E0EE0FFF1FEA0FFB1FE18144
:10083600EE0FEE0FEBB921960895109639F080EA87
:100846009FE00197F1F7A8951197C9F708955523E9
:1008560042F4503811F4E0FF04C03196691F791F45
:100866006BF050E8572711F45F933CC05F3F31F0BF
:10087600660F000C57956795752F08955F930020B6
:100886000AF03CC035C050E8192E1522880F991F72
:100896009527550F879550E8072E0522660F771F77
:1008A6007527550F67950895689401C0E8943097A9
:1008B60060407040B1F0002426F0772312F40094D3
:1008C6008CD0172E7EE1112032F07A95EE0FFF1FA5
:1008D600661F111CF9CFEF2FF62F612D5F93C1DF35
:1008E6005F910895EE27FF27662777275F91089582
:1008F600EFEFFFEF6FE77FEF5F910895EFEFFFEF09
:100906006FE77FE75F9108955F93BDDF703821F44D
:1009160011200AF4EDCFF2CF903809F4E3CF012489
:100926000894970B1BF4D4F30020F3CF792F1F9371
:100936002F933F934F9311241127222733274427C0
:10094600552790E2AE17BF078607410730F0AE1B6A
:10095600BF0B860B410B089401C08894551F221FBC
:10096600331F111CAA1FBB1F881F441F9A9551F7DE
:10097600F901612D4F913F912F911F91662332F01E
:10098600550FEE1FFF1F661F7A9543F260DF5F91DA
:10099600089599239AF0772342F0971748F029F49F
:1009A600AE17BF07860720F031F098948894089513
:1009B6009894089408951894889408957723C2F714
:1009C600971798F3A9F7EA17FB07680788F399F3CF
:1009D600ECCFF195E195F0400895F095609570950E
:1009E600E195FF4F6F4F7F4F0895FE2FFF0FFF0BCF
:1009F6006F2F7F2F08956F2F660F660B762F089542
:100A06008B2F880F880B982F08950024112490E1CE
:100A1600AA0FBB1F001C111C0E1A1F0A18F40E0E7B
:100A26001F1E01C0A1609A9599F7FD01D001089596
:100A360012D0EBDF0EF4CDDF0895E894B7FF04C0C3
:100A4600A095B09511966894F7FDC3DFDEDFFD0132
:100A56000EF4BFDF0895E894F7FF02C0BADF68948A
:100A6600B7FF06C0A095B095119600F8039400FA5A
:100A76000895689401C0E89401D019DF182E862FD6
:100A8600612D192E972F712D1B2EBF2FF12D1A2E8A
:100A9600AE2FE12D0895F999FECFFF93FFB7F89495
:100AA600A1BDB2BDF89AE0B5FFBFFF910895F99BCD
:100AB60002C0A895FCCF9FB7F894A1BDB2BDF89A25
:100AC60080B5E81719F0E0BDFA9AF99A9FBF089524
:00000001FF
