:100000000C9450000C9400000C9400000C94000020
:100010000C9400000C9400000C9400000C94000060
:100020000C9400000C9400000C9400000C94D70079
:100030000C9400000C9400000C9400000C94000040
:100040000C947F000C9400000C9400000C940000B1
:100050000C9400000C9400000C9400000C94000020
:100060000C9400000C9400000000010000300237E6
:10007000002900230226012201200037002000224F
:100080000237032F032802330034023600370020E2
:10009000033F01000A00680026000B036C0000000B
:1000A000F894EE27EFBBF1E0F5BFE5BF8DE0A2E0ED
:1000B000BB27ED938A95E9F780E098E0A0E0B1E0F6
:1000C000ED930197E9F7E2E9F0E0859195910097CA
:1000D00061F0A591B59105901590BF01F0010590D3
:1000E0000D920197E1F7FB01F0CFE0E0EEBBEFEFFF
:1000F000EDBFE8E0EEBFC0E0D3E00C94D8000A9278
:100100001A92FA926A937A938A939A93AA93BA93D9
:10011000EA93FA93EFB7EA93E8EEE6BD4394E5E09D
:10012000E41509F44424E1E0F0E05E0E6F1EEAE815
:10013000F2E0E515F60528F455246624AA2009F016
:100140007A9428982B982C9842984398E42DF0E0C4
:10015000309719F4439AA0E01BC0E130A0E0FA0701
:1001600019F4429AA1E014C0E230A0E0FA0719F4B1
:100170002C9AA2E00DC0E330A0E0FA0719F42B9A04
:10018000A3E006C0E430A0E0FA0719F4289AA4E03E
:10019000AFD1E991EFBFF991E991B991A991999105
:1001A000899179916991F99019900990189518950C
:1001B000E5E0E5BDE0EFE6BDE1E0E0936E00E3E8F9
:1001C000E0938000ECE0E0938100B4D1E0938800FC
:1001D000E2E0E0936F00EFE3E4B9EFE0E7B9EFE7C7
:1001E000EAB9E0EFE8B9EFEFEBB9E5E08E2E77245E
:1001F000A6D1A9D178949ED1E13238F09BD1B3D168
:1002000099D1E1500E942F04F6CFEFE0B2D1A0E0E7
:10021000B0E00E9423048E2E359B27C034990DC078
:10022000E3E68E160CF48394A7D1349906C0A8D1C6
:10023000E3E68E160CF48394F8CF4F990DC0E1E0FD
:10024000E8150CF48A9498D14F9906C099D1E1E051
:10025000E8150CF48A94F8CF8A92A2E01BD1E82D1D
:10026000A0E0B0E00E942F04D7CFE1E182D18FD18E
:10027000EEE07FD190D1359BFECF8DD1359B25C04F
:10028000349910C057D1E03B18F454D1EF5F87D1B7
:1002900073D1349907C088D1E03B18F44BD1EF5F9C
:1002A0007ED1F7CF4F9910C045D1E33218F042D13B
:1002B000E15075D161D14F9907C076D1E33218F082
:1002C00039D1E1506CD1F7CFD9CFDD24EE24E7E06E
:1002D000F0E0DE16EF0680F4E1E14BD1A6E9B0E0F4
:1002E0000E94F5022CD1A2E3B0E00E94F502E1E009
:1002F000F0E0DE0EEF1EEBCF359BFECF4CD1E1E1FF
:1003000038D1A4EFB1E00E94F50253D1EAE031D137
:1003100011D1E33920F0A1E0B0E0E2E940D10AD107
:10032000E2529E2E49D1E0930403F0930503662721
:1003300077270E942E03DF01CB01E92DFF276627D7
:1003400077270E942E030E945C03E0930003F09342
:1003500001036093020370930303EBE37E2EE1E05D
:10036000AE2EE0E07E169CF5EBE37E2E8A94E0E074
:100370008E166CF5772488241CD1A1E0B0E0E2E26F
:100380000ED13599FECFDBD0DED0DD24EE24E3E0C4
:10039000F0E0DE16EF06D8F4CDD0E03B38F4CAD05A
:1003A000E2D0C8D0EF5F0E942F04F6CFF0D0C2D0C9
:1003B000E33238F0BFD0D7D0BDD0E1500E942F0437
:1003C000F6CFE5D0E1E0F0E0DE0EEF1EE0CFF4D0B6
:1003D000A0910403B0910503AE1BBF0BF2D0AE1B7E
:1003E000BF0BE0910003F091010360910203709153
:1003F0000303882799270E9413040E94A10309F090
:1004000008F422C097D0E332B0F094D0AE2FE15080
:100410008E2FEA2FF0E0B297BF01CED0DF01D1D00E
:10042000EA0FFB1FDB010E94F003AE2FE82FEA1B4F
:10043000A1E0B0E0B4D0C0D0DF01C3D0EA0FFB1F11
:10044000E0930403F09305038A92A2E023D0B1D095
:10045000A72DB0E0A7FDBFEFE2E0F0E00E94F503BA
:10046000309711F4EAE001C0E2E1EA93A0E012D093
:1004700035990EC0359BFECFAA248DD0EAE079D005
:100480003599FECF88D0359BFECF85D0E1E0AE2EEA
:1004900068CFFFCFAA93E881E03001F1A881E2E0C4
:1004A000EA9FF0013197EA5FFC4FBF01A981BB27AA
:1004B000EAE0F0E00E94F503DB01EC93A881E2E0C2
:1004C000EA9FF001EA5FFC4FBF01A981B0E0EAE0DA
:1004D000F0E00E94F003DB01EC9303C0E981E093BC
:1004E000060304C0AA9372D0A981A083229608951E
:1004F000AA936CD070D0E17011F4409801C0409A7A
:1005000065D069D0E270F0E0F595E795E03011F440
:10051000419801C0419A5AD0E081ABE0B3E0F0E0ED
:10052000EE0FFF1FEA0FFB1FE181EE0FEE0FEBB99D
:1005300021960895A1E0B0E00E9423040895E2E12D
:10054000EA93A0E0A7CFEBE0EA93A1E0CBDFEBE0FA
:10055000EA93A2E0C7DFEBE0EA93A3E0C3DFEBE0BE
:10056000EA93A4E0BFCFE0938800AEE1B0E00C9442
:10057000F502EA93A0E08ECFAAEFB0E00C94F5026A
:100580008A92A2E087DFA4E6B0E00C94F502A8EE20
:10059000B3E00C94F502A1E0B0E00C94F5020E94E7
:1005A0002F04E09388000895A9E1B0E00E94F502CD
:1005B000C1CF7A92A1E06ECFA82DECE3EA02F00160
:1005C0000895E72DF0E0E7FDFFEF0895E881F0E002
:1005D000EA5FFC4F0895E081ABE0B3E0F0E0EE0F9E
:1005E000FF1FAE0FBF1FEC910895109639F080EAFF
:1005F0009FE00197F1F7A8951197C9F70895552342
:1006000042F4503811F4E0FF04C03196691F791F9D
:100610006BF050E8572711F45F933CC05F3F31F017
:10062000660F000C57956795752F08955F9300200E
:100630000AF03CC035C050E8192E1522880F991FCA
:100640009527550F879550E8072E0522660F771FCF
:100650007527550F67950895689401C0E894309701
:1006600060407040B1F0002426F0772312F400942B
:100670008CD0172E7EE1112032F07A95EE0FFF1FFD
:10068000661F111CF9CFEF2FF62F612D5F93C1DF8D
:100690005F910895EE27FF27662777275F910895DA
:1006A000EFEFFFEF6FE77FEF5F910895EFEFFFEF61
:1006B0006FE77FE75F9108955F93BDDF703821F4A6
:1006C00011200AF4EDCFF2CF903809F4E3CF0124E2
:1006D0000894970B1BF4D4F30020F3CF792F1F93CA
:1006E0002F933F934F931124112722273327442719
:1006F000552790E2AE17BF078607410730F0AE1BC3
:10070000BF0B860B410B089401C08894551F221F14
:10071000331F111CAA1FBB1F881F441F9A9551F736
:10072000F901612D4F913F912F911F91662332F076
:10073000550FEE1FFF1F661F7A9543F260DF5F9132
:10074000089599239AF0772342F0971748F029F4F7
:10075000AE17BF07860720F031F09894889408956B
:100760009894089408951894889408957723C2F76C
:10077000971798F3A9F7EA17FB07680788F399F327
:10078000ECCFF195E195F0400895F0956095709566
:10079000E195FF4F6F4F7F4F0895FE2FFF0FFF0B27
:1007A0006F2F7F2F08956F2F660F660B762F08959A
:1007B0008B2F880F880B982F08950024112490E127
:1007C000AA0FBB1F001C111C0E1A1F0A18F40E0ED4
:1007D0001F1E01C0A1609A9599F7FD01D0010895EF
:1007E00012D0EBDF0EF4CDDF0895E894B7FF04C01C
:1007F000A095B09511966894F7FDC3DFDEDFFD018B
:100800000EF4BFDF0895E894F7FF02C0BADF6894E2
:10081000B7FF06C0A095B095119600F8039400FAB2
:100820000895689401C0E89401D019DF182E862F2E
:10083000612D192E972F712D1B2EBF2FF12D1A2EE2
:10084000AE2FE12D0895F999FECFFF93FFB7F894ED
:10085000A1BDB2BDF89AE0B5FFBFFF910895F99B25
:1008600002C0A895FCCF9FB7F894A1BDB2BDF89A7D
:1008700080B5E81719F0E0BDFA9AF99A9FBF08957C
:00000001FF
