:080000000C944C000C9400006C
:100008000C9400000C9400000C9400000C94000068
:100018000C9400000C9400000C9400000C94000058
:100028000C9400000C94E8000C9400000C94000060
:100038000C9400000C9400000C947B000C940000BD
:100048000C9400000C9400000C9400000C94000028
:100058000C9400000C9400000C9400000C94000018
:100068000100003002370029002302260122012066
:100078000037002000220237032F03280233003400
:10008800023600370020033F26000A036A000000FA
:10009800F894EE27EFBBF1E0F5BFE5BF8DE0A2E0F5
:1000A800BB27ED938A95E9F780E098E0A0E0B1E0FE
:1000B800ED930197E9F7E0E9F0E0859195910097D4
:1000C80061F0A591B59105901590BF01F0010590DB
:1000D8000D920197E1F7FB01F0CFE0E0EEBBEFEF07
:1000E800EDBFE8E0EEBFC0E0D3E00C94E9000A926F
:1000F8001A92FA926A937A938A939A93AA93BA93E2
:10010800EA93FA93EFB7EA93E8EEE6BD4394E5E0A5
:10011800E41511F00C9491004424E1E0F0E05E0E47
:100128006F1EEAE8F2E0E515F60510F00C949F0062
:10013800552466247A9428982B982C9842984398AA
:10014800E42DF0E0309711F00C94AF00439AA0E052
:100158000E942E032BC0E130A0E0FA0711F00C94A6
:10016800BA00429AA1E00E942E0320C0E230A0E02B
:10017800FA0711F00C94C5002C9AA2E00E942E03F5
:1001880015C0E330A0E0FA0711F00C94D0002B9AC8
:10019800A3E00E942E030AC0E430A0E0FA0711F0A1
:1001A8000C94DA00289AA4E00E942E03E991EFBF8C
:1001B800F991E991B991A991999189917991699167
:1001C800F9901990099018951895E5E0E5BDE0EFCC
:1001D800E6BDE1E0E0936E00E3E8E0938000ECE048
:1001E800E0938100A0E0B0E00E949704E0938800CB
:1001F800E2E0E0936F00EFE3E4B9EFE0E7B9EFE79F
:10020800EAB9E0EFE8B9EFEFEBB9E5E08E2E772435
:10021800E2E1EA93A0E00E94FA02EBE0EA93A1E0AF
:100228000E942503EBE0EA93A2E00E942503EBE09D
:10023800EA93A3E00E942503EBE0EA93A4E00E947E
:1002480025037894A0E0B0E00E949704E13210F40E
:100258000C944001A0E0B0E00E949704E09388006D
:10026800A4E1B0E00E946903A0E0B0E00E94970416
:10027800E1500E94A304E6CFEFE0EA93A0E00E94D9
:10028800FA02359B3FC034991BC0E3E68E1614F082
:100298000C944F018394AAEFB0E00E94690334994B
:1002A8000FC08A92A2E00E94FA02A4E6B0E00E947F
:1002B8006903E3E68E1614F00C9463018394EFCF80
:1002C8004F991BC0E1E0E81514F00C946C018A9476
:1002D800AAEFB0E00E9469034F990FC08A92A2E08A
:1002E8000E94FA02A4E6B0E00E946903E1E0E81582
:1002F80014F00C9480018A94EFCF8A92A2E00E94B5
:10030800FA02BFCFE1E1EA93A0E00E94FA02A8EE68
:10031800B3E00E946903EEE0EA93A0E00E94FA02CB
:10032800A1E0B0E00E946903359901C0FDCFA1E0CA
:10033800B0E00E946903359B5FC034992DC0A0E0EE
:10034800B0E00E949704E03B10F00C94B401A0E0E8
:10035800B0E00E949704EF5F0E94A304E093880036
:10036800AAEFB0E00E946903349916C0A9E1B0E091
:100378000E946903A0E0B0E00E949704E03B10F0FF
:100388000C94CF01A0E0B0E00E949704EF5F0E94B8
:10039800A304E0938800E8CF4F992DC0A0E0B0E017
:1003A8000E949704E33210F40C94E301A0E0B0E05B
:1003B8000E949704E1500E94A304E0938800AAEFEA
:1003C800B0E00E9469034F9916C0A9E1B0E00E940D
:1003D8006903A0E0B0E00E949704E33210F40C94A3
:1003E800FE01A0E0B0E00E949704E1500E94A3043F
:1003F800E0938800E8CF9FCFBB24CC24E7E0F0E06F
:10040800BE16CF0610F00C942002E1E1EA93A0E0BA
:100418000E94FA02A6E9B0E00E946903E2E1EA93C9
:10042800A0E00E94FA02A2E3B0E00E946903E1E0C2
:10043800F0E0BE0ECF1EE2CF359901C0FDCFA1E09E
:10044800B0E00E946903E1E1EA93A0E00E94FA02A9
:10045800A4EFB1E00E9469037A92A1E00E94FA0237
:10046800EAE0EA93A0E00E94FA02A0E0B0E00E946D
:100478009704E33910F40C944802A0E0B0E0E2E9F4
:100488000E94A304E0938800A0E0B0E00E949704D3
:10049800E252E0930403A82DECE3EA02D02CE12C0D
:1004A800ED2DFE2D662777270E94A203DF01CB01E1
:1004B800E0910403FF27662777270E94A2030E9482
:1004C800D003E0930003F093010360930203709359
:1004D80003037724E0E07E1614F00C947E02EBE32D
:1004E8007E2E8A94E0E08E1614F00C947E02772417
:1004F8008824FFCFA82DECE3EA02F001DF01ED2DFF
:10050800FE2DEA1BFB0BDF01E72DF0E0E7FDFFEF17
:10051800AE1BBF0BE0910003F09101036091020351
:1005280070910303882799270E9487040E94150465
:1005380009F010F40C94D902A0E0B0E00E949704EE
:10054800E33210F40C94CC02A0E0B0E00E949704CF
:10055800E1508E2FA0E0B0E00E949704F0E0B2973F
:10056800BF01A82DECE3EA02F001DF01E72DF0E07E
:10057800E7FDFFEFEA0FFB1FDB010E946404AE2FCB
:10058800E82FEA1BA0E0B0E00E94A304E0938800F3
:10059800A82DECE3EA02F001DF01E72DF0E0E7FD2A
:1005A800FFEFEA0FFB1FDE2EEF2E8A92A2E00E94D9
:1005B800FA027A92A1E00E94FA02A72DB0E0A7FD04
:1005C800BFEFE2E0F0E00E946904309711F00C946C
:1005D800F302EAE0EA93A0E00E94FA0205C0E2E131
:1005E800EA93A0E00E94FA0275CFFFCFAA93E881B0
:1005F800E03011F40C942003A881E2E0EA9FF001B6
:100608003197EB5FFC4FBF01A981BB27EAE0F0E01F
:100618000E946904DB01EC93A881E2E0EA9FF00103
:10062800EB5FFC4FBF01A981B0E0EAE0F0E00E9477
:100638006404DB01EC9303C0E981E093050322968F
:100648000895AA93E881F0E0EB5FFC4FA981A083AD
:1006580022960895AA93E881F0E0EB5FFC4FE081D1
:10066800AAE0B3E0F0E0EE0FFF1FAE0FBF1FEC9162
:10067800E17011F4409801C0409AE881F0E0EB5F26
:10068800FC4FE081AAE0B3E0F0E0EE0FFF1FAE0FF1
:10069800BF1FEC91E270F0E0F595E795E03011F4BA
:1006A800419801C0419AE881F0E0EB5FFC4FE0819E
:1006B800AAE0B3E0F0E0EE0FFF1FEA0FFB1FE181B5
:1006C800EE0FEE0FEBB921960895109639F080EAF7
:1006D8009FE00197F1F7A8951197C9F70895552359
:1006E80042F4503811F4E0FF04C03196691F791FB5
:1006F8006BF050E8572711F45F933CC05F3F31F02F
:10070800660F000C57956795752F08955F93002025
:100718000AF03CC035C050E8192E1522880F991FE1
:100728009527550F879550E8072E0522660F771FE6
:100738007527550F67950895689401C0E894309718
:1007480060407040B1F0002426F0772312F4009442
:100758008CD0172E7EE1112032F07A95EE0FFF1F14
:10076800661F111CF9CFEF2FF62F612D5F93C1DFA4
:100778005F910895EE27FF27662777275F910895F1
:10078800EFEFFFEF6FE77FEF5F910895EFEFFFEF78
:100798006FE77FE75F9108955F93BDDF703821F4BD
:1007A80011200AF4EDCFF2CF903809F4E3CF0124F9
:1007B8000894970B1BF4D4F30020F3CF792F1F93E1
:1007C8002F933F934F931124112722273327442730
:1007D800552790E2AE17BF078607410730F0AE1BDA
:1007E800BF0B860B410B089401C08894551F221F2C
:1007F800331F111CAA1FBB1F881F441F9A9551F74E
:10080800F901612D4F913F912F911F91662332F08D
:10081800550FEE1FFF1F661F7A9543F260DF5F9149
:10082800089599239AF0772342F0971748F029F40E
:10083800AE17BF07860720F031F098948894089582
:100848009894089408951894889408957723C2F783
:10085800971798F3A9F7EA17FB07680788F399F33E
:10086800ECCFF195E195F0400895F095609570957D
:10087800E195FF4F6F4F7F4F0895FE2FFF0FFF0B3E
:100888006F2F7F2F08956F2F660F660B762F0895B1
:100898008B2F880F880B982F08950024112490E13E
:1008A800AA0FBB1F001C111C0E1A1F0A18F40E0EEB
:1008B8001F1E01C0A1609A9599F7FD01D001089506
:1008C80012D0EBDF0EF4CDDF0895E894B7FF04C033
:1008D800A095B09511966894F7FDC3DFDEDFFD01A2
:1008E8000EF4BFDF0895E894F7FF02C0BADF6894FA
:1008F800B7FF06C0A095B095119600F8039400FACA
:100908000895689401C0E89401D019DF182E862F45
:10091800612D192E972F712D1B2EBF2FF12D1A2EF9
:10092800AE2FE12D0895F999FECFFF93FFB7F89404
:10093800A1BDB2BDF89AE0B5FFBFFF910895F99B3C
:1009480002C0A895FCCF9FB7F894A1BDB2BDF89A94
:1009580080B5E81719F0E0BDFA9AF99A9FBF089593
:00000001FF
