:060000000C9450000C946A
:1000060000000C9400000C9400000C9400000C946A
:1000160000000C9400000C9400000C9400000C945A
:1000260000000C9400000C94D7000C9400000C9473
:1000360000000C9400000C9400000C947F000C94BB
:1000460000000C9400000C9400000C9400000C942A
:1000560000000C9400000C9400000C9400000C941A
:1000660000000100010000300237002900230226AB
:10007600012201200037002000220237032F032827
:1000860002330034023600370020033F01000A0025
:10009600680026000B036C000000F894EE27EFBB07
:1000A600F1E0F5BFE5BF8DE0A2E0BB27ED938A95B1
:1000B600E9F780E098E0A0E0B1E0ED930197E9F779
:1000C600E2E9F0E085919591009761F0A591B591EF
:1000D60005901590BF01F00105900D920197E1F78B
:1000E600FB01F0CFE0E0EEBBEFEFEDBFE8E0EEBFE7
:1000F600C0E0D3E00C94D8000A921A92FA926A935E
:100106007A938A939A93AA93BA93EA93FA93EFB758
:10011600EA93E8EEE6BD4394E5E0E41509F44424E9
:10012600E1E0F0E05E0E6F1EEAE8F2E0E515F605A6
:1001360028F455246624AA2009F07A9428982B9846
:100146002C9842984398E42DF0E0309719F4439A9E
:10015600A0E01BC0E130A0E0FA0719F4429AA1E042
:1001660014C0E230A0E0FA0719F42C9AA2E00DC000
:10017600E330A0E0FA0719F42B9AA3E006C0E430B6
:10018600A0E0FA0719F4289AA4E0A2D1E991EFBFFA
:10019600F991E991B991A991999189917991699189
:1001A600F9901990099018951895E5E0E5BDE0EFEE
:1001B600E6BDE1E0E0936E00E3E8E0938000ECE06A
:1001C600E0938100A7D1E0938800E2E0E0936F001E
:1001D600EFE3E4B9EFE0E7B9EFE7EAB9E0EFE8B952
:1001E600EFEFEBB9E5E08E2E772499D19CD1789488
:1001F60091D1E13238F08ED1A6D18CD1E1500E9456
:100206001A04F6CFEFE0A5D1A0E0B0E00E940E04FC
:100216008E2E359B27C034990DC0E3E68E1608F462
:1002260083949AD1349906C09BD1E3E68E1608F4DE
:100236008394F8CF4F990DC0E1E0E81508F48A944D
:100246008BD14F9906C08CD1E1E0E81508F48A9469
:10025600F8CF8A92A2E00ED1E82DA0E0B0E00E948D
:100266001A04D7CFE1E175D182D1EEE072D183D104
:10027600359BFECF80D1359B25C0349910C04AD11D
:10028600E03B18F447D1EF5F7AD166D1349907C0C5
:100296007BD1E03B18F43ED1EF5F71D1F7CF4F9998
:1002A60010C038D1E33218F035D1E15068D154D1BD
:1002B6004F9907C069D1E33218F02CD1E1505FD1D4
:1002C600F7CFD9CFDD24EE24E7E0F0E0DE16EF0627
:1002D60080F4E1E13ED1A6E9B0E00E94E0021FD140
:1002E600A2E3B0E00E94E002E1E0F0E0DE0EEF1EE5
:1002F600EBCF359BFECF3FD1E1E12BD1A4EFB1E0AF
:100306000E94E0027A92A1E0B5D0EAE022D102D1C1
:10031600E33920F0A1E0B0E0E2E931D1FBD0E252CE
:100326009E2E37D1E0930403F093050366277727C3
:100336000E941903DF01CB01E92DFF2766277727E6
:100346000E9419030E944703E0930003F093010300
:100356006093020370930303772426C03599FECF7A
:10036600DED0E1D0DD24EE24E3E0F0E0DE16EF0699
:10037600D8F4D0D0E03B38F4CDD0E5D0CBD0EF5F89
:100386000E941A04F6CFF3D0C5D0E33238F0C2D0BB
:10039600DAD0C0D0E1500E941A04F6CFE8D0E1E0EE
:1003A600F0E0DE0EEF1EE0CFF4D0A0910403B09192
:1003B6000503AE1BBF0BE72DF0E0AE1BBF0BE091B4
:1003C6000003F091010360910203709103038827F3
:1003D60099270E94FE030E948C0309F008F424C0AA
:1003E60099D0E332B8F096D0AE2FE1508E2FEA2F97
:1003F600F0E0B297BF01CDD0DF01E72DF0E0EA0FC4
:10040600FB1FDB010E94DB03AE2FE82FEA1BA1E0F6
:10041600B0E0B5D0BED0DF01E72DF0E0EA0FFB1F5C
:10042600E0930403F09305038A92A2E023D07A9224
:10043600A1E020D0A72DBB27E2E0F0E00E94E00378
:10044600309711F4EAE001C0E2E1EA93A0E012D0AD
:1004560035990EC0359BFECFAA248DD0EAE079D01F
:100466003599FECF88D0359BFECF85D0E1E0AE2E04
:1004760074CFFFCFAA93E881E03001F1A881E2E0D2
:10048600EA9FF0013197EA5FFC4FBF01A981BB27C4
:10049600EAE0F0E00E94E003DB01EC93A881E2E0F1
:1004A600EA9FF001EA5FFC4FBF01A981B0E0EAE0F4
:1004B600F0E00E94DB03DB01EC9303C0E981E093EB
:1004C600060304C0AA936AD0A981A0832296089540
:1004D600AA9364D068D0E17011F4409801C0409AA4
:1004E6005DD061D0E270F0E0F595E795E03011F46B
:1004F600419801C0419A52D0E081ABE0B3E0F0E010
:10050600EE0FFF1FEA0FFB1FE181EE0FEE0FEBB9B7
:1005160021960895A1E0B0E00E940E040895E2E15C
:10052600EA93A0E0A7CFEBE0EA93A1E0CBDFEBE014
:10053600EA93A2E0C7DFEBE0EA93A3E0C3DFEBE0D8
:10054600EA93A4E0BFCFE0938800AEE1B0E00C945C
:10055600E002EA93A0E08ECFAAEFB0E00C94E002AE
:100566008A92A2E087DFA4E6B0E00C94E002A8EE4F
:10057600B3E00C94E002A1E0B0E00C94E0020E942B
:100586001A04E09388000895A9E1B0E00E94E00211
:10059600C1CFA82DECE3EA9FF0010895E881F0E0D1
:1005A600EA5FFC4F0895E081ABE0B3E0F0E0EE0FC8
:1005B600FF1FAE0FBF1FEC910895109639F080EA29
:1005C6009FE00197F1F7A8951197C9F7089555236C
:1005D60042F4503811F4E0FF04C03196691F791FC8
:1005E6006BF050E8572711F45F933CC05F3F31F042
:1005F600660F000C57956795752F08955F93002039
:100606000AF03CC035C050E8192E1522880F991FF4
:100616009527550F879550E8072E0522660F771FF9
:100626007527550F67950895689401C0E89430972B
:1006360060407040B1F0002426F0772312F4009455
:100646008CD0172E7EE1112032F07A95EE0FFF1F27
:10065600661F111CF9CFEF2FF62F612D5F93C1DFB7
:100666005F910895EE27FF27662777275F91089504
:10067600EFEFFFEF6FE77FEF5F910895EFEFFFEF8B
:100686006FE77FE75F9108955F93BDDF703821F4D0
:1006960011200AF4EDCFF2CF903809F4E3CF01240C
:1006A6000894970B1BF4D4F30020F3CF792F1F93F4
:1006B6002F933F934F931124112722273327442743
:1006C600552790E2AE17BF078607410730F0AE1BED
:1006D600BF0B860B410B089401C08894551F221F3F
:1006E600331F111CAA1FBB1F881F441F9A9551F761
:1006F600F901612D4F913F912F911F91662332F0A1
:10070600550FEE1FFF1F661F7A9543F260DF5F915C
:10071600089599239AF0772342F0971748F029F421
:10072600AE17BF07860720F031F098948894089595
:100736009894089408951894889408957723C2F796
:10074600971798F3A9F7EA17FB07680788F399F351
:10075600ECCFF195E195F0400895F0956095709590
:10076600E195FF4F6F4F7F4F0895FE2FFF0FFF0B51
:100776006F2F7F2F08956F2F660F660B762F0895C4
:100786008B2F880F880B982F08950024112490E151
:10079600AA0FBB1F001C111C0E1A1F0A18F40E0EFE
:1007A6001F1E01C0A1609A9599F7FD01D001089519
:1007B60012D0EBDF0EF4CDDF0895E894B7FF04C046
:1007C600A095B09511966894F7FDC3DFDEDFFD01B5
:1007D6000EF4BFDF0895E894F7FF02C0BADF68940D
:1007E600B7FF06C0A095B095119600F8039400FADD
:1007F6000895689401C0E89401D019DF182E862F59
:10080600612D192E972F712D1B2EBF2FF12D1A2E0C
:10081600AE2FE12D0895F999FECFFF93FFB7F89417
:10082600A1BDB2BDF89AE0B5FFBFFF910895F99B4F
:1008360002C0A895FCCF9FB7F894A1BDB2BDF89AA7
:1008460080B5E81719F0E0BDFA9AF99A9FBF0895A6
:00000001FF
